:020000040800F2
:1000000000000220C9040008690C00086B0C0008FD
:100010006D0C00086F0C0008710C00080000000057
:10002000000000000000000000000000730C000849
:10003000750C000800000000770C0008790C00081F
:100040001905000819050008190500081905000818
:100050001905000819050008190500081905000808
:1000600019050008190500081905000819050008F8
:1000700019050008190500081905000819050008E8
:1000800019050008190500081905000819050008D8
:1000900019050008190500081905000819050008C8
:1000A00019050008190500081905000819050008B8
:1000B00019050008190500081905000819050008A8
:1000C0001905000819050008190500081905000898
:1000D0001905000819050008190500081905000888
:1000E0001905000819050008190500081905000878
:1000F0001905000819050008190500081905000868
:100100001905000819050008190500081905000857
:100110001905000819050008190500081905000847
:100120001905000819050008190500081905000837
:100130001905000819050008190500081905000827
:10014000190500081905000819050008810C0008A8
:100150001905000819050008190500081905000807
:1001600019050008190500081905000819050008F7
:10017000190500081905000819050008000000000D
:0801800019050008190500082B
:1001880010B5054C237833B9044B13B10448AFF3C9
:1001980000800123237010BD5C08002000000000CF
:1001A800084C000808B5034B1BB103490348AFF3DB
:1001B800008008BD0000000060080020084C00080E
:1001C80053B94AB9002908BF00281CBF4FF0FF31B6
:1001D8004FF0FF3000F072B9ADF1080C6DE904CEB4
:1001E80000F006F8DDF804E0DDE9022304B070470A
:1001F8002DE9F047089E04468846002B4BD18A42D9
:10020800154667D9B2FA82F24AB1C2F1200701FA5B
:1002180002F320FA07F7954047EA030894404FEAAB
:10022800154E230CB8FBFEF71FFA85FC0EFB17884A
:1002380043EA084307FB0CF1994209D9EB1807F187
:10024800FF3080F01B81994240F21881023F2B4415
:100258005B1AA4B2B3FBFEF00EFB103344EA03446E
:1002680000FB0CFCA44509D92C1900F1FF3380F0E0
:100278000781A44540F2048102382C4440EA074033
:10028800A4EB0C0400271EB1D4400023C6E90043A8
:100298003946BDE8F0878B4209D9002E00F0EB8083
:1002A8000027C6E9000138463946BDE8F087B3FAA9
:1002B80083F7002F47D18B4202D3824200F2FA80A3
:1002C800841A61EB030301209846002EE0D0C6E9AA
:1002D8000048DDE702B9FFDEB2FA82F2002A40F0F8
:1002E8008F80491B4FEA154E1FFA85F80127B1FB8D
:1002F800FEFC230C0EFB1C1143EA014308FB0CF126
:10030800994207D9EB180CF1FF3002D2994200F25A
:10031800CD808446591AA3B2B1FBFEF00EFB10142F
:1003280043EA044408FB00F8A04507D92C1900F15A
:10033800FF3302D2A04500F2B6801846A4EB0804A9
:1003480040EA0C409FE7C7F1200CBB4022FA0CFEA4
:100358004EEA030E01FA07F420FA0CF521FA0CF321
:100368004FEA1E482543B3FBF8F92C0C08FB193358
:100378001FFA8EFA44EA034309FB0AF49C4202FA84
:1003880007F200FA07F10BD91EEB030309F1FF305E
:1003980080F087809C4240F28480A9F1020973446E
:1003A8001B1BADB2B3FBF8F008FB103345EA03445E
:1003B80000FB0AFAA24508D91EEB040400F1FF333A
:1003C8006BD2A24569D90238744440EA0940A0FBBF
:1003D8000289A4EB0A044C45C2464B4654D351D07B
:1003E800002E69D0B1EB0A0564EB030404FA0CFC97
:1003F800FD40FC404CEA0505C6E90054002747E7E4
:10040800C2F1200320FA03F7954001FA02F021FA1D
:1004180003F34FEA154E3843010CB3FBFEF71FFAFE
:1004280085F80EFB173341EA034107FB08F38B42BB
:1004380004FA02F407D9691807F1FF3C2FD28B425E
:100448002DD9023F2944CB1A81B2B3FBFEF00EFB33
:10045800103341EA034100FB08F38B4207D96918BE
:1004680000F1FF3C17D28B4215D902382944C91A2A
:1004780040EA07473BE73746304609E70746E7E6DD
:100488001846FBE64145ABD2B8EB020A69EB0E020F
:1004980001381346A4E76046E9E7184695E767463A
:1004A800D1E781467CE702382C4447E7ACF1020CDF
:1004B8002B442FE7384608E73746E9E6704700BF80
:1004C800DFF834D0002103E00C4B5B584350043173
:1004D8000B480C4B42189A42F6D30B4A02E0002311
:1004E80042F8043B094B9A42F9D300F043FD04F06B
:1004F80091FA00F09BFA7047000002204C4C00086B
:10050800000000205C0800205C08002094100020F7
:10051800FEE7000008B503460B4A126842B10A4AD2
:10052800106803446A46934206D8074A136008BD18
:10053800054A06491160F2E704F066FA0C230360E5
:100548004FF0FF30F3E700BF780800209810002034
:1005580070B5374C01224FF40061204600F0E2FEEE
:10056800012000F07DFD00224FF40061204600F0DC
:10057800D9FE012000F074FD2E4C20232370442363
:1005880063702D4D0A2302222146284602F0EEFC14
:10059800012000F065FD23232370072363700A23DD
:1005A80002222146284602F0E1FC012000F058FD15
:1005B80024232370882363700A23022221462846B5
:1005C80002F0D4FC012000F04BFD14232370182303
:1005D80063700A2302222146284602F0C7FC012044
:1005E80000F03EFD154E00224FF40041304600F069
:1005F80099FEE02323700A2302222146284602F0AE
:10060800B5FC012000F02CFD0A2340F2C2720C490F
:10061800284602F0ABFC012000F022FD01224FF435
:100628000041304600F07EFE012000F019FD70BD4B
:1006380000040240800800204C09002000100240FD
:10064800000000202DE9F04F8DB000240794089495
:1006580009940A940B940194614B1A6B42F01002AE
:100668001A631A6B02F010020192019A02941A6B33
:1006780042F004021A631A6B02F004020292029A10
:1006880003941A6B42F080021A631A6B02F080021C
:100698000392039A04941A6B42F001021A631A6BCC
:1006A80002F001020492049A05941A6B42F00202C5
:1006B8001A631A6B02F002020592059A06941A6BE5
:1006C80042F008021A631B6B03F008030693069BAB
:1006D800444F224648F20801384600F023FEDFF86E
:1006E80010A101221146504600F01CFE3E4E224643
:1006F8004FF40061304600F015FEDFF8F89022460E
:100708004FF21001484600F00DFE48F20803079327
:100718000125089509940A9407A9384600F01EFD9A
:100728000795089509940A9407A9504600F016FD04
:10073800082307934FF00208CDF8208009940A9403
:100748004FF0050BCDF82CB007A9504600F006FD78
:100758000795DFF8A4A0CDF820A0099407A923489D
:1007680000F0FCFC042307930894099407A9304679
:1007780000F0F4FC4FF480630793CDF820800994CF
:100788000A94CDF82CB007A9304600F0E7FC4FF4E6
:1007980000630793089509940A9407A9304600F066
:1007A800DDFC4FF210030793089509940A9407A9F2
:1007B800484600F0D3FC202307930894099407A91E
:1007C800484600F0CBFCCDF81C80CDF820A0099459
:1007D80007A9384600F0C2FC0DB0BDE8F08F00BF95
:1007E80000380240001002400004024000000240AD
:1007F80000080240000C02400000121008B50B4827
:100808000B4B03600B4B436000238360C3604FF4C2
:100818008042026143618361C361036201F044FB6A
:1008280000B908BD00F044F9FBE700BF94080020B8
:1008380000540040A086010030B589B0002303931E
:1008480004930593069307930268144B9A4201D0C8
:1008580009B030BD00250195114C236B43F002030C
:100868002363236B03F002030193019B4FF410737E
:10087800039312230493012305930423079303A9E5
:10088800084800F06BFC0295236C43F400132364C2
:10089800236C03F400130293029BD9E70054004031
:1008A800003802400004024008B50B480B4B0360B7
:1008B8004FF40072426000238360C3600261084AFB
:1008C80042618361C361036201F0BEFB00B908BDE8
:1008D80000F0EEF8FBE700BFE8080020003C00400D
:1008E8000077010070B588B0002303930493059343
:1008F8000693079302681E4B9A4201D008B070BD58
:100908000024009403F5FE331A6C42F400421A6482
:100918001A6C02F400420092009A01941A6B42F099
:1009280001021A631A6B02F001020192019A029401
:100938001A6B42F004021A631B6B03F00403029360
:10094800029B10230393022604960625079503A904
:10095800084800F003FC4FF4A4530393049605944D
:100968000694079503A9044800F0F8FBC6E700BF02
:10097800003C0040000002400008024070B598B0FA
:10098800302200210DEB020004F078F800240794CF
:10099800089409940A940B94039404940594069477
:1009A8000194204B1A6C42F080521A641B6C03F0BD
:1009B80080530193019B02941B4B1A6842F48042B6
:1009C8001A601B6803F480430293029B01260C966D
:1009D8004FF480330D93022512954FF4800313933F
:1009E800082314934FF4A8731593169507231793A8
:1009F8000CA801F021FE0F230793089509944FF4E2
:100A0800A0530A934FF480530B93052107A802F0D3
:100A18004BF80396C0230493059503A802F006F942
:100A280018B070BD003802400070004000B583B0B7
:100A380000F0EAFAFFF7A2FFFFF704FEFFF7DEFE79
:100A4800FFF732FF00F036F800F034F900F052F802
:100A5800FFF77EFD114C00224FF40041204600F0C4
:100A680061FC052000F0FCFA0A23009305230C4AD8
:100A78000C490D4802F047FB0C4B1870052000F09C
:100A8800EFFA01224FF40041204600F04BFC05200C
:100A980000F0E6FA00F02EF9DCE700BF0010024093
:100AA80034090020C40700204C0900203009002028
:100AB8007047000008B50D480D4B03604FF4827372
:100AC800436000238360C360036143614FF4007295
:100AD8008261C3610362436283620A23C36202F0D4
:100AE80005FA00B908BDFFF7E3FFFBE7A4090020FA
:100AF8000030014008B50E480E4B03604FF4827376
:100B0800436000238360C360036143614FF4007254
:100B180082613822C2610362436283620A23C3622C
:100B280002F0E4F900B908BDFFF7C2FFFBE700BF18
:100B38004C0900200038004070B58AB000230593A6
:100B4800069307930893099303682F4A934204D0A6
:100B58002E4A934222D00AB070BD002100912C4B3E
:100B68005A6C42F480525A645A6C02F480520092D1
:100B7800009A01911A6B42F001021A631B6B03F091
:100B880001030193019BE0230593022306930523A8
:100B9800099305A91F4800F0E1FADCE70024029454
:100BA8001B4B1A6C42F480421A641A6C02F480429D
:100BB8000292029A03941A6B42F004021A631A6BA7
:100BC80002F004020392039A04941A6B42F00202A0
:100BD8001A631B6B03F002030493049B042305931D
:100BE800022606960525099505A90B4800F0B6FAD0
:100BF8004FF420430593069607940894099505A990
:100C0800064800F0ABFAA6E7003001400038004083
:100C18000038024000000240000802400004024080
:100C280000B583B0002100910C4B5A6C42F480420D
:100C38005A645A6C02F480420092009A01911A6C2C
:100C480042F080521A641B6C03F080530193019B9D
:100C5800072000F019FA03B05DF804FB00380240E1
:100C68007047FEE7FEE7FEE7FEE77047704770470C
:100C780008B500F0E3F908BD08B5024801F02BF803
:100C880008BD00BFC80D002004290CD0052902D0DA
:100C9800022904D07047064B03221A707047044B90
:100CA80002221A707047024B01221A70F2E700BF45
:100CB8008608002008B501220B490C4803F0CEF93C
:100CC80048B90B49094803F0E0F938B9074803F077
:100CD80020FA30B908BDFFF7EBFEF2E7FFF7E8FEB0
:100CE800F4E7FFF7E5FEF5E7910C0008FC090020A2
:100CF800D807002008B5024803F02CFA08BD00BF49
:100D0800FC090020F0B589B00023039304930593F0
:100D1800069307930368B3F1A04F01D009B0F0BD63
:100D2800002501951B4C236B43F001032363236BC0
:100D380003F001030193019B08AE4FF4007346F8DA
:100D4800143D154F3146384600F008FA4FF4E05389
:100D5800039302230493059506950A2307933146C6
:100D6800384600F0FBF9636B43F080036363029538
:100D7800636C43F480436364636C03F480430293BD
:100D8800029B2A462946432000F090F9432000F0B0
:100D9800C1F9C3E7003802400000024008B5D0F8A6
:100DA800C00203F0C3F908BD08B5D0F8C00203F0CB
:100DB800C7FA08BD08B5D0F8C00203F0D5FA08BDD7
:100DC800704708B5D0F8C00203F0B9F908BD08B5F6
:100DD800D0F8C00203F0B7F908BD000090F8C0339E
:100DE800012B01D00020704710B504460F48C0F809
:100DF800C042C4F8C4034FF0A043036008238360D3
:100E08000123C3600023036102228261C36100F0F1
:100E18002FFB40B9054801F03CF80146204603F095
:100E280082F9002010BDFFF743FEF3E7C80D00204C
:100E380008B5D0F8C40301F031F818B1022803D07E
:100E4800012008BD0020FCE70220FAE708B5D0F829
:100E5800C40301F018F808BD08B5D0F8C40301F0C0
:100E68000BF808BD08B590F8C033012B04D0C82092
:100E780000F0F6F8002008BD084600F06FF8F6E725
:100E880010B4D0F8C43301EB8104E00004461844E0
:100E980090F83B0048B901EB8101C800034483F88E
:100EA800512000205DF8044B7047234483F85020FC
:100EB800F7E708B500F0D4F808BD18B1022803D048
:100EC80002207047002070470120704708B5D0F80D
:100ED800C40300F0A4FFFFF7F0FF08BD08B5D0F881
:100EE800C40300F0B2FFFFF7E8FF08BD08B5D0F86B
:100EF800C40300F0BCFFFFF7E0FF08BD10B584B0E5
:100F0800D0F8C403BDF8204002949DF81C40019419
:100F18009DF81840009400F049FAFFF7CEFF04B09E
:100F280010BD08B5D0F8C40300F090FAFFF7C5FF6C
:100F380008BD10B584B0D0F8C4039DF824400394CC
:100F4800BDF820400294079C01949DF81840009435
:100F580000F0D8FAFFF7B1FF04B010BD08B528B10A
:100F680000220121024800F0DDF908BD0122F8E75E
:100F7800000802400F49D1F8883043F47003C1F8E3
:100F880088300D4B1A6842F001021A600020986000
:100F98001A6822F0847222F480321A60074A5A6072
:100FA8001A6822F480221A60D8604FF000638B60C0
:100FB800704700BF00ED00E0003802401030002408
:100FC80010B504460E4B18784FF47A73B3FBF0F360
:100FD8000C4A1068B0FBF3F000F0AAF868B90F2CBF
:100FE80001D901200AE0002221464FF0FF3000F02D
:100FF8005DF8034B5C60002000E0012010BD00BFDD
:10100800D0070020CC07002008B50B4B1A6842F423
:1010180000721A601A6842F480621A601A6842F410
:1010280080721A60032000F02FF80020FFF7C8FF35
:10103800FFF7F6FD002008BD003C0240034A116896
:10104800034B1B780B441360704700BF8C100020C3
:10105800D0070020014B1868704700BF8C10002093
:1010680038B50446FFF7F6FF0546B4F1FF3F02D056
:10107800044B1B781C44FFF7EDFF401BA042FAD33A
:1010880038BD00BFD0070020074AD36823F4E063C7
:101098001B041B0C000200F4E060184340F0BF6022
:1010A80040F40030D060704700ED00E030B4174BDA
:1010B800DB68C3F30223C3F10704042C28BF04240C
:1010C8001D1D062D18D9033B4FF0FF3505FA04F412
:1010D80021EA0401994005FA03F322EA03031943BC
:1010E80000280BDB0901C9B200F1604000F561403E
:1010F80080F8001330BC70470023E5E700F00F00CC
:101108000901C9B2024B1954F4E700BF00ED00E031
:1011180014ED00E0002807DB00F01F02400901235E
:101128009340024A42F82030704700BF00E100E0D7
:101138000138B0F1807F0AD2064B5860064AF02188
:1011480082F823100020986007221A607047012057
:10115800704700BF10E000E000ED00E000230F2B17
:1011680000F2D780F0B482B039E0072200E0002214
:10117800B2403A430234674E46F82420664A14685F
:10118800EA4302EA04064F6817F4803F01D045EAB3
:101198000406614C2660646802EA04064F6817F486
:1011A800003F01D045EA04065B4C6660A46802EA89
:1011B80004064F6817F4801F01D045EA0406564C10
:1011C800A660E46822404E6816F4001F01D045EA84
:1011D8000402514CE26001330F2B00F29780012288
:1011E8009A400C6804EA0205AA42F4D14C68022C21
:1011F80001D0122C10D1DE08083650F826C003F0B2
:101208000704A7000F24BC402CEA040C0C69BC405E
:1012180044EA0C0440F8264004685F000326BE40F8
:10122800F64306EA040C4C6804F00304BC4044EAA4
:101238000C0404604C6804F1FF3CBCF1010F03D9B5
:10124800112C01D0122C10D1846806EA040CCC6849
:10125800BC4044EA0C048460446824EA02024C68F6
:10126800C4F300149C4014434460C26816408A6862
:10127800BA403243C2604A6812F0805FABD00022A5
:101288000192264A546C44F480445464526C02F42B
:1012980080420192019A9C08A61C1E4A52F82670A8
:1012A80003F0030296000F22B24027EA02071C4A05
:1012B80090423FF45CAF02F5806290421AD002F58A
:1012C8008062904218D002F58062904216D002F5F2
:1012D8008062904214D002F58062904212D002F5EA
:1012E8008062904210D002F5806290423FF43DAF98
:1012F80008223DE701223BE7022239E7032237E7CC
:10130800042235E7052233E7062231E702B0F0BCB4
:101318007047704700380140003C014000380240E7
:101328000000024012B90904816170478161704769
:10133800F8B50668346A04F00F07C4F34343C4F3EE
:101348000A14022B2ED16CB307EB8702D300034497
:10135800596C39B305462246304602F0ADF8BA005A
:101368003A44D3002B445A6C22445A64DA6C22441F
:10137800DA6406EB4713D3F810150B4A0A408AB112
:10138800D3F8002522F0804242F00042C3F800253D
:10139800BB00D919CA002A4492F8503083F00103DF
:1013A80082F85030F8BD00BF0000F81FF0B585B0D6
:1013B8009DF828509DF82C60BDF8307090F8B84220
:1013C800012C41D0012480F8B8424FEA810C8C44AA
:1013D8004FEACC0404444FF0000C84F83DC084F874
:1013E8003830A4F8407084F8391084F83F6002F06F
:1013F8007F0C84F83AC012F0800F1BD101EB810CEE
:101408004FEACC0404444FF0000C84F83BC0044677
:1014180001EB810C4FEACC00204480F83C50029745
:1014280001960095206802F053F9002384F8B83239
:1014380005B0F0BD01EB810C4FEACC0404444FF039
:10144800010C84F83BC0E2E70220F1E790F8B832DB
:10145800012B0BD010B50446012380F8B832006880
:1014680002F0BFF9002084F8B80210BD02207047CE
:10147800002845D0F0B58BB00646046890F8B9321C
:10148800002B38D0032386F8B932E36B13F4807F3E
:1014980001D100233361306801F0B5FF344654F8B8
:1014A80010CB6D460FCC0FC50FCC0FC594E80300C9
:1014B80085E80300371D97E80E00604601F058FFE5
:1014C8000121306801F0A5FF344654F810CB6D4671
:1014D8000FCC0FC50FCC0FC594E8030085E80300B7
:1014E80097E80E00604602F065F8012386F8B932E5
:1014F80000200BB0F0BD80F8B832FFF703FCC1E75D
:1015080001207047F8B59DF81870BDF820608D006F
:101518000D44EC00044484F83B2084F83F306FB954
:1015280001EB8105EC000444032584F84250032BA9
:1015380000F29680DFE803F00A8D2F5E01EB81054B
:10154800EC000444022584F84250F0E7012F40F0F3
:101558008780002A40F0848036B901EB8102D300ED
:101568000344012283F8512001EB8102D300034494
:1015780093F851303BB901EB8102D30003440022B8
:1015880083F842206CE001EB8102D300034402227D
:1015980083F8422064E0B2B901EB8102D30003442E
:1015A80093F851303BB901EB8102D3000344002288
:1015B80083F8422054E001EB8102D3000344022265
:1015C80083F842204CE001EB8102D300034493F8F6
:1015D80050303BB901EB8102D3000344002283F869
:1015E80042203DE001EB8102D3000344022283F84C
:1015F800422035E0B2B901EB8102D300034493F8ED
:1016080051303BB901EB8102D3000344002283F837
:10161800422025E001EB8102D3000344022283F833
:1016280042201DE001EB8102D300034493F85030BF
:101638003BB901EB8102D3000344002283F8422026
:101648000EE001EB8102D3000344022283F842201A
:1016580006E001EB8102D3000344002283F8422014
:101668008A005418E3000344079C5C649E640024C9
:1016780083F85C40DC6483F8391083F85D401144DA
:10168800CB0003F13801027C0144006802F024F920
:10169800F8BD30B583B005460468D4F840340193EA
:1016A800D4F840340093009B23F02E030093019B51
:1016B80013F0020F07D0019B13F0010F28D1009BF4
:1016C80043F002030093019B13F0080F13D0009B13
:1016D80043F008030093019B13F0040F34D0AB6967
:1016E800022B1CD0EB68012B29D02846FFF769FB99
:1016F8002846FFF759FB019B13F0200F03D0009BEE
:1017080043F020030093009BC4F8403403B030BD7D
:10171800A36923F00053A361FFF746FBCFE7019BC2
:1017280003F4C023B3F5802F04D00121286801F009
:10173800DFFEDAE70221286801F0DAFED5E74EF687
:101748006022C4F80424D0E72846FFF740FBD4F809
:10175800403423F02E03C4F840342A68936943F0D8
:1017680000539361C7E7F8B506460D46076807EBCF
:10177800411707F5A064A36813F0040F3ED00423B3
:10178800A360E36843F00203E360A36813F4007FF7
:101798006AD1A36813F0010F00F0878033694BB159
:1017A800AA002A44D30033449A6C2169C1F3120178
:1017B800521ADA64AA002A44D3003344012283F877
:1017C8005D2000219965A26093F83F30002B57D027
:1017D800022B55D0032B5DD1D7F8003543F00053C9
:1017E800C7F8003505EB8502D3003344012283F89E
:1017F8005C2029463046FFF7E3FA4BE0A36813F074
:10180800200F02D02023A360BFE7A36813F0080FBE
:1018180017D1A36813F4806FB7D0E36843F00203CD
:10182800E360006801F0DDFF1023A36005EB85028B
:10183800D3003344082283F85D204FF48063A3600B
:10184800A3E7E36843F00203E36001EB8102D300FE
:101858000344052283F85D201023A3600823A360B6
:10186800006801F0BEFF90E7E36843F00203E3601D
:101878002946306801F0B5FF4FF40073A36013E008
:10188800E36843F00203E3602946306801F0A9FFEA
:101898001023A360AB005919CA00324492F85030A3
:1018A80083F0010382F85030F8BDA36813F0020FEB
:1018B80062D0E36823F00203E36005EB8502D300FE
:1018C800334493F85D30012B17D0052B29D0062B14
:1018D8002FD0082B2DD0032B16D105EB8502D30072
:1018E8003344022283F85C20D7F8003523F0804384
:1018F80043F00043C7F8003506E005EB8502D30046
:101908003344012283F85C200223A36005EB85029F
:10191800D300334493F85C2029463046FFF750FA49
:10192800C2E705EB8502D3003344052283F85C2027
:10193800EAE7AA002A44D30033449A6D01329A6533
:10194800032A11D9AA002A44D300334400229A65F5
:10195800042283F85C20D7F8003523F0804343F055
:101968000043C7F80035CFE705EB8502D3003344C1
:10197800022283F85C20EEE7A36813F0800F19D1E8
:10198800A36813F0100F8FD005EB8502D300334402
:1019980093F83F30032B25D00BB1022B07D105EB71
:1019A8008502D300334400229A6533694BB3102370
:1019B800A36079E7E36843F00203E360AB005919D9
:1019C800CA003244916D013191652B44DA003244EA
:1019D800062382F85D302946306801F002FF802333
:1019E800A36061E705EB8502D300334400229A65C2
:1019F800E36843F00203E3602946306801F0F1FE32
:101A0800D5E705EB8502D3003344032283F85D2034
:101A1800E36843F00203E3602946306801F0E1FE21
:101A2800C5E7F8B5036803EB411303F5A064A268A2
:101A380012F0040F24D10E460546A26812F0200FBA
:101A480025D02023A36001EB8102D3001A4603446A
:101A580093F83D30012B19D18B000244002182F804
:101A68003D103344DA000244022382F85C30E36814
:101A780043F00203E3603146006801F0B2FE05E07E
:101A88000423A360E36843F00203E360F8BDA2689F
:101A980012F0400F34D1A26812F4007F4AD1A26834
:101AA80012F0010F51D1A26812F0080F62D1A2689A
:101AB80012F0100F6FD08A000A44D30003440022AA
:101AC8009A65032283F85D2093F83D306BB901EBEA
:101AD8008102D300034493F83C3033B901EB81020F
:101AE800D3000344012283F83D20E36843F0020356
:101AF800E3603146286801F074FE1023A360C5E74F
:101B08008B005918CA000244042182F85D10012193
:101B180082F83D103344DA00024400239365E368F9
:101B280043F00203E3603146006801F05AFE4023A7
:101B3800A360ABE7E36843F00203E360006801F0E9
:101B480050FE4FF40073A360A0E78F007A18D3000B
:101B5800034400229A65E36843F00203E3600068E7
:101B680001F03FFE0123A360B919C800284480F89A
:101B78005D308BE70823A360E36843F00203E3606A
:101B8800006801F02EFE06EB8601C80028440523F4
:101B980080F85D307AE7A26812F0800F39D1A26828
:101BA80012F4806F46D1A26812F0020F3FF46EAFB4
:101BB800E26822F00202E26001EB8101CA001146EC
:101BC800024492F85D20012A48D0032A5AD0042AF8
:101BD8006CD0052A72D0062A01D0082A59D1B10042
:101BE8003144CA002A44916D0131916503296BD9AA
:101BF800282202FB065200219165042182F85C101C
:101C0800D3F8002522F0804242F00042C3F80025B4
:101C18003FE0E36843F00203E360006801F0E1FDA0
:101C280006EB8601CB002B44062283F85D20802337
:101C3800A3602BE7E36843F00203E360006801F068
:101C4800D0FD1023A3604FF48063A36006EB8601E8
:101C5800CB002B44082283F85D2017E70B4603448A
:101C6800012283F85C2093F83F30023BDBB29342B9
:101C78000FD80B46034493F8512082F0010283F8F1
:101C8800512006E006EB8602D3000344022283F8C3
:101C98005C200223A36006EB8602D3002B4493F852
:101CA8005C2031462846FFF78BF8EFE606EB860204
:101CB800D3000344022283F85C20EAE7282303FBCD
:101CC800060383F85C20E4E7282202FB065202217F
:101CD80082F85C1094E7F8B504460568284601F0D8
:101CE80003FC012800D0F8BD206801F0F9FB0028AA
:101CF800F9D0206801F0F4FB10F4001F03D023682A
:101D08004FF400125A61206801F0EAFB10F4801FBA
:101D180003D023684FF480125A61206801F0E0FB79
:101D280010F0806F03D023684FF080625A612068FA
:101D380001F0D6FB10F0020F02D0236802225A618C
:101D4800206801F0CDFB10F0005F25D1206801F07C
:101D5800C7FB10F0807F31D1206801F0C1FB10F083
:101D6800080F2FD1206801F0BBFB10F0007F30D1A5
:101D7800206801F0B5FB10F0100FB4D02268936909
:101D880023F0100393612046FFF7D2FA2268936983
:101D980043F010039361A6E7D5F8403423F02E03EF
:101DA800C5F840342046FFF705F80121206801F006
:101DB8009FFB23684FF000525A61C7E72046FFF7A0
:101DC80068FCC9E72046FEF7E9FF236808225A6144
:101DD800C8E7206801F000FD0746002604E0F1B2DC
:101DE8002046FFF71EFE0136A368B34212D906F05B
:101DF8000F0327FA03F313F0010FF4D005EB461392
:101E0800D3F8003513F4004FE9D0F1B22046FFF7BC
:101E1800AAFCE8E723684FF000725A61A8E738B5D2
:101E280090F8B832012B0ED00446012580F8B8523C
:101E3800006801F0E2FA2946206801F098FB0020CA
:101E480084F8B80238BD0220FCE790F8B832012BBC
:101E58000BD010B50446012380F8B832006801F0B1
:101E6800E7FD002084F8B80210BD0220704708B5CD
:101E7800006801F05DFB08BD01EB8101CB0018444F
:101E880090F85C00704701EB8101CB001844C06CEE
:101E9800704708B5006801F016FC08BD08B5006871
:101EA80001F006FC08BD0000002800F0BE80F8B56F
:101EB800044690F83D30002B6BD0242384F83D3045
:101EC8002268136823F00103136000F09FFE626824
:101ED800584B9A4262D8584B98428CBF0023012332
:101EE800002B40F0A480554BA3FB00239B0C2168DA
:101EF8004A6822F03F021A434A6025682A6A22F09B
:101F08003F0266684B498E424ED8013313432B6219
:101F18002568E96921F44F4121F0FF016368454ACA
:101F280093424BD801385B00B0FBF3F30133C3F3A2
:101F38000B03042B38BF04230B43EB6121680B68A8
:101F480023F0C003E269206A024313430B6021684F
:101F58008B6823F4034323F0FF032269E0680243FC
:101F680013438B602168CB6823F0FF036269A06983
:101F780002431343CB602268136843F001031360E4
:101F880000202064202384F83D30206384F83E003C
:101F9800F8BD80F83C30FEF74FFC8EE7284B98429E
:101FA8008CBF002301239BE74FF4967101FB03F3D9
:101FB8002449A1FB03139B090133A7E7A268BAB917
:101FC800461E03EB4307B6FBF7F60136C6F30B06CE
:101FD800B6FA86F6760936BBC2B9013803EB430375
:101FE800B0FBF3F30133C3F30B0242F40043A3E75E
:101FF800461E03EB830707EB8707B6FBF7F60136A8
:10200800C6F30B06B6FA86F67609E4E7013803EB61
:10201800830303EB8303B0FBF3F20132C2F30B0239
:1020280042F4404388E7012386E7012070470120F6
:10203800AEE700BFA08601007F841E0083DE1B433D
:10204800FF083D00D34D6210002800F0BF8070B536
:10205800044690F84130002B51D0022284F84120E8
:102068002168CB6923F47B6323F00F03CB612368DA
:102078001A626369934263D0E368002B46D1102546
:10208800A368202B00D86D00012000F079FE236999
:10209800B3F5007F3CD0B0FBF5F000EB80004300C7
:1020A8006269B3FBF2F30533494AA2FB0323DB0859
:1020B80003F001029B1A5B081202991EFD2941D800
:1020C80021690A43216813430B622168CB6923F411
:1020D8007B6323F00F036268A0680243E068024351
:1020E800A0690243134343F40063CB61236A012BC5
:1020F8002ED000206064012384F8413070BD80F840
:102108004030344B4363FEF7EDFBA6E72025B7E7E5
:10211800E36853B1AD00B0FBF5F000EB800043007D
:102128006269B3FBF2F30533BEE7ED00B0FBF5F0EF
:1021380000EB800043006269B3FBF2F30533B3E7B9
:102148000022BAE7636C43F0100363640120D5E70B
:10215800214B63632268214B9A421FD04FF04022E3
:10216800D36923F47B6323F00F03D36122681B4BED
:102178009A4215D04FF0402302221A622268174B68
:102188009A4210D04FF04021CA6992B26368B3F501
:10219800007F0AD0C3B94FF4807608E0104ADFE721
:1021A800A3F58063E8E70E49EEE74FF48076A06870
:1021B800E568238B2B439BB203439BB23343134302
:1021C80043F40063CB6194E70026F0E701207047F1
:1021D800CDCCCCCC5F220008692400080038004030
:1021E80000340040704708B5426A03681288DA6014
:1021F800436A02334362438D013B9BB24385438D5F
:102208009BB203B108BD0268536823F0A003536072
:10221800012380F84130FFF7E5FFF3E7704708B581
:102228000368DA68C36A1A80C36A0233C362438EDA
:10223800013B9BB24386438E9BB203B108BD026843
:10224800536823F060035360012380F84130FFF79F
:10225800E5FFF3E7704710B584B004460268936859
:10226800039390F84130DBB2042B06D094F8413048
:10227800DBB2032B2CD004B010BD039B13F0010F6D
:1022880003D0536813F0400F1FD1039B13F0400F86
:10229800ECD023685A6812F0200FE7D05A6822F071
:1022A80060025A60002301932368DA6801929B68F0
:1022B8000193019B012384F84130636C43F00203CE
:1022C80063642046FFF7C6FFD0E7FFF7A8FFDCE707
:1022D800039B13F0020F04D023685B6813F0800F90
:1022E8001DD1039B13F0080FC5D023685A6812F05C
:1022F800200FC0D05A6822F0A0025A60002302932F
:1023080023689B680293029B012384F84130636C25
:1023180043F0040363642046FFF79CFFABE72046C5
:10232800FFF761FFDDE7704708B5436A9A1C426210
:1023380002681B88D360438D013B9BB24385438D64
:102348009BB23BB90268536823F0A0035360438EE5
:102358009BB203B108BD012380F84130FFF7E3FFCA
:10236800F8E7000008B50268144B9A421BD04FF0FA
:102378004023DA68C36A991CC1621A80438E013B04
:102388009BB24386438E9BB263B902680B4B9A4259
:102398000CD04FF04022536823F060035360438D04
:1023A8009BB22BB108BDA3F58063E2E7044AF2E7CC
:1023B800012380F84130FFF7B6FFF3E7003800400B
:1023C8000034004008B5436A9A1C42621A880168C2
:1023D800124B994217D04FF04023DA60438D013BEE
:1023E8009BB24385438D9BB263B902680B4B9A42FB
:1023F8000CD04FF04022536823F0A0035360438E63
:102408009BB22BB108BDA3F58063E6E7044AF2E767
:10241800012380F84130FFF786FFF3E700380040DA
:102428000034004008B50368DA68C36A991CC162C1
:102438001A80438E013B9BB24386438E9BB23BB9C5
:102448000268536823F060035360438D9BB203B165
:1024580008BD012380F84130FFF765FFF8E7000069
:1024680010B586B0044603689A680592704A93428C
:102478006FD04FF04022916804915B6803935368D2
:1024880002936368B3F5007F01D0002B70D1059BE0
:1024980013F0020F03D0039B13F0800F5CD1049B51
:1024A80013F0010F03D0029B13F0400F58D1049B87
:1024B80013F0400F24D0029B13F0200F20D0226885
:1024C8005B4B9A4250D04FF04022536823F0600390
:1024D80053602268536823F0A003536000230093DD
:1024E8002368DA6800929B680093009B012384F8B4
:1024F8004130636C43F0020363642046FFF7AAFE91
:10250800059B13F0080F22D0039B13F0200F1ED059
:102518002268536823F0A00353602268444B9A4210
:1025280024D04FF04022536823F060035360002307
:10253800019323689B680193019B012384F8413030
:10254800636C43F0040363642046FFF783FE06B020
:1025580010BDA2F580628EE72046FFF7E5FE9EE7F4
:102568002046FFF7FFFEA2E7324AAEE7314ADAE734
:10257800049B13F0020F03D0029B13F0800F4AD183
:10258800059B13F0010F03D0039B13F0400F46D1B6
:10259800059B13F0400F1CD0039B13F0200F18D09D
:1025A8002268536823F0600353602268204B9A42E4
:1025B80039D04FF04022536823F0A0035360012321
:1025C80084F84130636C43F0020363642046FFF7EC
:1025D80041FE049B13F0080FB9D0029B13F0200FA3
:1025E800B5D02268124B9A421FD04FF04022536850
:1025F80023F0A00353602268536823F060035360FC
:10260800012384F84130636C43F00403636420467B
:10261800FFF720FE9BE72046FFF7D4FEB0E72046F1
:10262800FFF700FFB4E7034AC5E7024ADFE700BF48
:102638000038004000340040002800F0BB8170B52D
:1026480082B00446036813F0010F3BD0A74B9B6888
:1026580003F00C03042B2CD0A44B9B6803F00C0351
:10266800082B21D06368B3F5803F4FD0B3F5A02F76
:1026780052D09E4B1A6822F480321A601A6822F4EB
:1026880080221A606368002B50D0FEF7E3FC0546F1
:10269800964B1B6813F4003F14D1FEF7DBFC401B7C
:1026A8006428F5D903208AE1904B5B6813F4800F06
:1026B800D8D08E4B1B6813F4003F03D06368002BFF
:1026C80000F07A81236813F0020F55D0874B9B687E
:1026D80013F00C0F3ED0854B9B6803F00C03082BBE
:1026E80033D0E368002B68D0814B01221A60FEF7D3
:1026F800B1FC05467D4B1B6813F0020F54D1FEF761
:10270800A9FC401B0228F5D9032058E1774A136831
:1027180043F480331360B5E7744B1A6842F480229F
:102728001A601A6842F480321A60ABE7FEF792FC2E
:1027380005466E4B1B6813F4003FC3D0FEF78AFCB6
:10274800401B6428F5D9032039E1684B5B6813F412
:10275800800FC6D1654B1B6813F0020F04D0E368E5
:10276800012B01D001202AE1604A136823F0F80305
:10277800216943EAC1031360236813F0080F40D0AE
:10278800636963B35B4B01221A60FEF763FC05467D
:10279800564B5B6F13F0020F33D1FEF75BFC401B07
:1027A8000228F5D903200AE1504A136823F0F803F8
:1027B800216943EAC1031360DEE74D4B00221A602A
:1027C800FEF748FC0546494B1B6813F0020FD3D0AF
:1027D800FEF740FC401B0228F5D90320EFE0454BEB
:1027E80000221A60FEF736FC0546404B5B6F13F07B
:1027F800020F06D0FEF72EFC401B0228F5D9032055
:10280800DDE0236813F0040F79D0384B1B6C13F00C
:10281800805F33D100230193344B1A6C42F080520D
:102828001A641B6C03F080530193019B0125324B02
:102838001B6813F4807F23D0A368012B34D0052BA9
:1028480038D02A4B1A6F22F001021A671A6F22F049
:1028580004021A67A368002B36D0FEF7FBFB064676
:10286800224B1B6F13F0020F48D1FEF7F3FB801BBE
:1028780041F288339842F3D90320A0E00025D6E737
:102888001D4A136843F480731360FEF7E3FB0646A2
:10289800194B1B6813F4807FCED1FEF7DBFB801B3E
:1028A8000228F5D903208AE0104A136F43F0010388
:1028B8001367CFE70D4B1A6F42F004021A671A6FBD
:1028C80042F001021A67C5E7FEF7C4FB0646074B4C
:1028D8001B6F13F0020F11D0FEF7BCFB801B41F2F7
:1028E80088339842F3D9032069E000BF00380240DA
:1028F80000004742800E474200700040E5B9A369D6
:10290800002B5BD0304A926802F00C02082A58D09B
:10291800022B17D02D4B00221A60FEF79BFB0446B2
:10292800294B1B6813F0007F42D0FEF793FB001B76
:102938000228F5D9032042E0234A136C23F0805380
:102948001364DCE7214B00221A60FEF783FB05467F
:102958001D4B1B6813F0007F06D0FEF77BFB401B66
:102968000228F5D903202AE0E369226A1343626A40
:1029780043EA8213A26A5208013A43EA0243E26A2E
:1029880043EA0263104A5360104B01221A60FEF7B3
:1029980061FB04460C4B1B6813F0007F06D1FEF761
:1029A80059FB001B0228F5D9032008E0002006E0A7
:1029B800002004E001207047012000E0002002B060
:1029C80070BD0120FBE700BF0038024060004742AD
:1029D800324B9B6803F00C03042B5CD0082B01D00E
:1029E8002F4870472DE9F04B2C4B5A6802F03F02F4
:1029F8005B6813F4800F2BD0284B5B68C3F38813F4
:102A08001E4600275C010025E41A65EB0705A901AD
:102A180041EA9461A001001B61EB0501CB0043EA88
:102A28005073C400A01943EB07014B0243EAD0538B
:102A38004402204619460023FDF7C2FB174B5B688A
:102A4800C3F3014301335B00B0FBF3F0BDE8F08B47
:102A5800124B5B68C3F388131E4600275C010025F0
:102A6800E41A65EB0705A90141EA9461A001001B7E
:102A780061EB0501CB0043EA5073C400A01943EB96
:102A880007018B0243EA905384022046194600232B
:102A9800FDF796FBD2E70348704700BF00380240B5
:102AA8000024F40000127A00002800F09D8070B520
:102AB80004464F4B1B6803F00F038B4209D2CBB27D
:102AC8004B4A1370136803F00F038B4201D00120A7
:102AD80070BD236813F0020F17D013F0040F04D051
:102AE800444A936843F4E0539360236813F0080F53
:102AF80004D0404A936843F4604393603D4A936826
:102B080023F0F003A068034393600D46236813F095
:102B1800010F32D06368012B21D09A1E012A25D9D2
:102B2800344A126812F0020F60D032498A6822F0E3
:102B3800030213438B60FEF78DFA06462D4B9B6804
:102B480003F00C036268B3EB820F16D0FEF782FA2B
:102B5800801B41F288339842F0D90320B8E7254A10
:102B6800126812F4003FE0D10120B1E7214A12684F
:102B780012F0007FD9D10120AAE71D4B1B6803F092
:102B88000F03AB4209D9EAB2194B1A701B6803F05C
:102B98000F03AB4201D001209AE7236813F0040F1A
:102BA80006D0144A936823F4E053E1680B4393601A
:102BB800236813F0080F07D00E4A936823F4604384
:102BC800216943EAC1039360FFF702FF094B9B6841
:102BD800C3F30313084AD35CD840084B186000209D
:102BE800FEF7EEF9002073E70120704701206FE738
:102BF800003C024000380240204C0008CC0700206E
:102C0800014B1868704700BFCC07002008B5FFF7D4
:102C1800F7FF044B9B68C3F38223034AD35CD84075
:102C280008BD00BF00380240304C000830B583B002
:102C38000446036813F0050F06D1236813F0020F4A
:102C48002ED1002003B030BD494B00221A60FEF798
:102C580001FA0546474B1B6813F0006F06D0FEF7D4
:102C6800F9F9401B0228F5D90320EBE76268A3684D
:102C78001B0743EA82133F4AC2F884303C4B0122C7
:102C88001A60FEF7E7F905463A4B1B6813F0006F28
:102C9800D3D1FEF7DFF9401B0228F5D90320D1E78D
:102CA80000230193334B1A6C42F080521A641B6C58
:102CB80003F080530193019B2F4A136843F48073F8
:102CC8001360FEF7C7F905462B4B1B6813F4807F8A
:102CD80006D1FEF7BFF9401B0228F5D90320B1E75A
:102CE800244B1B6F13F4407312D0E26802F4407255
:102CF8009A420DD01F4B1A6F22F440721F490120CF
:102D08000860002008601A671B6F13F0010F13D1C9
:102D1800E36803F44072B2F5407F1ED0154A936809
:102D280023F4F813936013490B6FE268C2F30B02A4
:102D380013430B67002085E7FEF78CF905460D4B1A
:102D48001B6F13F0020FE3D1FEF784F9401B41F229
:102D580088339842F3D9032074E706498A6822F435
:102D6800F81223F0704323F4407313438B60DAE7BF
:102D7800680047420038024000700040400E474259
:102D880001282AD1174B9B6813F4000303D0012BA9
:102D980025D115487047134B5B6813F4800F14D086
:102DA800104B5B6803F03F031048B0FBF3F00D4A8B
:102DB800D2F88430C3F3881300FB03F0D2F88430D0
:102DC800C3F30273B0FBF3F07047064B5B6803F084
:102DD8003F030748B0FBF3F0E9E700207047002005
:102DE800704700BF003802400080BB0000127A0024
:102DF8000024F400F8B505460F4616461C462B6815
:102E08009B6837EA03030CBF01230023B34237D082
:102E1800B4F1FF3FF3D0FEF71DF9069BC01AA0429C
:102E280001D2002CEBD12A68536823F0E0035360E9
:102E38006B68B3F5827F0BD0AB6AB3F5005F14D033
:102E4800012385F85130002385F85030032018E01D
:102E5800AB68B3F5004F02D0B3F5806FECD12A68A8
:102E6800136823F040031360E6E72A68136823F425
:102E7800005313602A68136843F400531360DFE7B4
:102E88000020F8BD30B585B0164C2468164DA5FB5A
:102E98000434640D4FF47A7505FB04F40394446814
:102EA800B4F5827F0BD0039BC3B1039B013B039313
:102EB80003689B6813F0800FF5D100230FE00B46E1
:102EC8000446009200228021FFF794FF034630B1A8
:102ED800636D43F020036365032300E00023184675
:102EE80005B030BDCC070020819F5E1600283BD07E
:102EF80010B504460023836290F85130002B2ED081
:102F0800022384F851302268136823F040031360C9
:102F18006368A2681343E268134322691343626932
:102F28001343A26902F400721343E2691343226A4D
:102F38001343A16A22680B431360638B03F00403F5
:102F4800616A22680B4353602268D36923F40063E3
:102F5800D36100206065012384F8513010BD80F8EA
:102F68005030FDF7E9FDCBE7012070472DE9F0412E
:102F780082B090F85040012C00F0C3801D461746DF
:102F880088460446012380F85030FEF763F8064669
:102F980094F85130DBB2012B09D00220012384F8C8
:102FA8005130002384F8503002B0BDE8F081B8F108
:102FB800000F00F09880002F00F09780032384F81A
:102FC800513000236365C4F83080A786E786A36381
:102FD800A387E38763642364A368B3F5004F1CD019
:102FE80023681A6812F0400F03D11A6842F04002B1
:102FF8001A60E368B3F5006F15D063680BB1012F51
:1030080049D1226B236812781A73236B0133236327
:10301800E38E013B9BB2E3863DE02268136843F4EC
:1030280080431360DCE763680BB1012F15D1226B75
:1030380023681288DA60236B02332363E38E013B33
:103048009BB2E38609E0FEF705F8801BA84202D38D
:10305800B5F1FF3F4BD1002D4BD0E38E9BB2002B37
:103068002CD023689A6812F0020FECD0226B1288D9
:10307800DA60236B02332363E38E013B9BB2E38662
:10308800EBE7FDF7E7FF801BA84202D3B5F1FF3F4E
:1030980031D1002D31D0E38E9BB27BB123689A6881
:1030A80012F0020FEDD0226B12781A73236B0133E2
:1030B8002363E38E013B9BB2E386ECE73246294665
:1030C8002046FFF7DFFE08B120236365A36833B904
:1030D80001932368DA6801929B680193019B636DF1
:1030E8006BB900205AE7012058E7012056E7032072
:1030F80054E7032052E7032050E703204EE701205E
:103108004CE7022050E72DE9F04383B0DDF8288032
:1031180090F85040012C00F00B811D4617460E46D2
:103128000446012380F85030FDF794FF814694F857
:103138005100C0B26368012815D0B3F5827F0AD068
:103148000223012284F85120002284F850201846D6
:1031580003B0BDE8F083A368002B40F0DB800428AF
:1031680001D00223EDE7002E00F0D680002F00F0FA
:10317800D580002D00F0D48094F85130DBB2042BB8
:1031880002D0052384F8513000236365A763E587DF
:10319800A5872663E586A5862364636423681A6881
:1031A80012F0400F03D11A6842F040021A60E36837
:1031B800B3F5006F10D063680BB1012D0AD1226BF3
:1031C800236812781A73236B01332363E38E013B60
:1031D8009BB2E386012569E063680BB1012D0AD132
:1031E800226B23681288DA60236B02332363E38E31
:1031F800013B9BB2E38601251BE023689A6812F025
:10320800010F0DD0E28F92B252B1DA68A36B1A8027
:10321800A36B0233A363E38F013B9BB2E3870125D2
:10322800FDF718FFA0EB0900404502D3B8F1FF3FB6
:1032380078D1E38E9BB21BB9E38F9BB2002B52D09F
:1032480023689A6812F0020FD7D0E28E92B2002A51
:10325800D3D0002DD1D0226B1288DA60236B0233D1
:103268002363E38E013B9BB2E3860025C5E7236811
:103278009A6812F0010F0DD0E28F92B252B1DA685B
:10328800A36B1A70A36B0133A363E38F013B9BB25B
:10329800E3870125FDF7DEFEA0EB0900404502D3D8
:1032A800B8F1FF3F40D1B8F1000F3FD0E38E9BB299
:1032B80013B9E38F9BB2B3B123689A6812F0020F77
:1032C800D5D0E28E92B2002AD1D0002DCFD0226B79
:1032D80012781A73236B01332363E38E013B9BB28D
:1032E800E3860025C3E74A4641462046FFF7CAFD64
:1032F800034618B120236365012322E7A268002A48
:103308007FF41FAF01922268D168019192680192FF
:10331800019A16E7022314E7012312E7012310E7B5
:1033280001230EE703230CE703230AE7032308E737
:1033380002230CE7002301330C4A934211D8026997
:10334800002AF8DA036943F001030361002301331B
:10335800064A934207D8026912F0010FF7D10020FC
:103368007047032070470320704700BF400D0300DB
:1033780084B010B5044603A880E80E00089B012B12
:103388001FD1A36B23F48033A363E36823F484037E
:1033980023F04003E360E36823F44013E3600F9BEA
:1033A800012B09D02046FFF7C5FF069B012B1BD038
:1033B800BDE8104004B07047E36843F48013E3604D
:1033C800F0E7E36843F04003E3602046FFF7B2FF0D
:1033D8000C9B23B9A36B43F48033A363E5E7A36B8A
:1033E80023F48033A363E0E7A36843F00603A360F4
:1033F800A36843F02003A360DAE7836843F001037E
:10340800836000207047836823F0010383600020F5
:10341800704708B5C36823F0C043C360012909D0C9
:1034280069B9C36843F08043C3603220FDF718FED2
:10343800002008BDC36843F00053C360F5E70120CE
:10344800F7E70000890141F0200101610023013301
:10345800054A934205D8026912F0200FF7D10020DF
:1034680070470320704700BF400D0300102303611D
:1034780000230133054A934205D8026912F0100F60
:10348800F7D1002070470320704700BF400D0300AC
:1034980070B49DF80C4064B903339D0807E000EB55
:1034A800023303F5805351F8046B1E600134AC42BB
:1034B800F5D3002070BC7047033292080023934272
:1034C8000CD210B400F58054246841F8044B013341
:1034D8009342F7D308465DF8044B70470846704797
:1034E8004269806910407047406900F001007047E8
:1034F80010B400F58064D0F8003423F00303C0F85A
:103508000034D0F8003401F003021343C0F800344B
:10351800012905D0022907D000205DF8044B704727
:103528004BF680336360F7E741F270736360F3E74B
:1035380030B583B0044600250195D0F84034019396
:10354800019B23F02E030193019B43F48073C0F881
:1035580040346420FDF784FD019B23F48073C4F894
:1035680040340A20FDF77CFD284603B030BD82B008
:1035780000230193D0F840340193019B23F02E03DC
:103588000193019B13F4805F01D101290CD0019BA9
:1035980013F4805F05D021B9019B23F48053C0F850
:1035A8004034002002B07047019B43F48053C0F8B8
:1035B8004034ECE784B038B5044605A880E80E002E
:1035C80025460023C4F8003EA36B43F40013A3630D
:1035D800A36B23F40023A363A36B23F48023A363C7
:1035E800E36B13F4807F10D0079B032B06D0D4F82D
:1035F800003423F00403C4F800340CE0D4F8003499
:1036080043F00403C4F8003405E0D4F8003423F090
:103618000403C4F8003410212046FFF713FF2046A6
:10362800FFF724FF002209E005EB42134FF0FF31BA
:10363800C3F808150021C3F80C150132069B934204
:10364800F2D801212046FFF792FFC820FDF708FDB8
:103658000023A3614FF0FF336361E36B13F4807FB2
:1036680017D04FF40073636203F18073A3620D4BAC
:10367800C4F80031089B1BB9A36943F01003A36188
:10368800A269094B1343A3610020BDE8384004B088
:1036980070478023636203F5C003A362034BC4F839
:1036A8000031E7E70003E000080020A3E000400045
:1036B80082B000230193D0F8403401930198C0F3FD
:1036C800414002B0704700F58060806880B2704762
:1036D800F0B506469DF8184000EB411505F5A060C9
:1036E8004FF0FF378760032C65D8DFE804F00256F7
:1036F800021840F29D47C76012F0800F09D1F76B9E
:1037080017F4807F59D0C76847F06007C76000206A
:103718000CE0C76847F48077C760002006E040F2F5
:103728009D67C76012F0800F31D1002006F5806ECA
:10373800D6F8187401F00F014FF0010C0CFA01F1E2
:103748003943C6F81814B16941F00071B16112F03B
:10375800800F34D100269DF81410022932D00021A0
:103768009B0503F0FE53D20202F4F0421343A20475
:1037780002F440221343BDF81C20C2F30A0213438B
:1037880033430B43C5F80035032C1ED0F0BDC76882
:1037980047F48077C7600020C8E740F22527C76054
:1037A80012F0800F01D10020C0E7C76847F4C07746
:1037B800C7600020BAE70120B8E70020B6E74FF459
:1037C8000046C8E74FF40031CAE7D5F8003543F0A2
:1037D8000053C5F80035D9E700F58060406980B22C
:1037E800704710B400EB411101F5A064D1F8003521
:1037F800C3F381433BB3022B25D0D1F8003543F006
:103808008043C1F80035D0F8103413F47F0F49D144
:10381800D1F8003523F00043C1F80035D1F8003560
:1038280043F00043C1F80035D1F8003523F40043D4
:10383800C1F8003500230133B3F57A7F27D8226811
:10384800002AF8DB23E0D1F8003543F08043C1F8C3
:103858000035C36A13F47F0F1DD1D1F8003523F06A
:103868000043C1F80035D1F8003543F00043C1F8F2
:103878000035D1F8003523F40043C1F800350023A2
:103888000133B3F57A7F02D82268002AF8DB0020DA
:103898005DF8044B7047D1F8003543F00043C1F898
:1038A8000035F4E7D1F8003543F00043C1F800359E
:1038B800EDE7000000EB4111064AC1F81025D1F8E8
:1038C800003523F0804343F00043C1F80035002061
:1038D800704700BF0000088070B582B04C78C36B99
:1038E80013F4807F07D00B792BB912B94B79012BD0
:1038F80011D0012A13D00B69E3B10D892B44013B88
:10390800B3FBF5F39BB2B3F5807F14D92D020D619B
:103918004FF480730FE02146FFF7CCFF75E000EB12
:103928004413D3F80C5525F06005C3F80C55002353
:103938004B71E0E70123CD781DB10D8905FB03F537
:103948000D610D69C5F31205374E06EAC3432B43D3
:103958008D7A6D0705F0C04500EB44142B43C4F87D
:10396800103512B1CB68C4F8143500F58066B36819
:1039780013F0010FD4F8003523F00053C4F80035D4
:10398800D4F800350CBF4FF0005500252B43C4F880
:103998000035D4F80055254B1D601D6825F080457D
:1039A8001D60CB78C3B1214D2B6843F400432B60D5
:1039B8001E4B1D6845F000451D601B68C4F80035A6
:1039C8001ABBCB780BBB0B69FBB1CA79032A14D895
:1039D800DFE802F0081E081E144D2B6823F400438C
:1039E8002B60E5E70333C26A92B2C3F38F039A42AE
:1039F80003D2836943F020038361CC684A780B8A39
:103A0800002100912146FFF743FD002002B070BD60
:103A18000333326992B2C3F38F039A42EDD28369BA
:103A280043F080638361E8E70000F81F88080020FE
:103A380070B505460446FFF7E6FC10212846FFF757
:103A480001FD2846FFF712FD00220AE004EB4211AF
:103A5800D1F8003523F0802343F08043C1F80035C6
:103A680001320F2AF2D90020034600E001300F2866
:103A780013D804EB401606F5A061D6F8002522F409
:103A8800004242F04042C6F800250133B3F57A7F80
:103A9800ECD80A68002AF8DBE8E74FF0FF33C5F8EE
:103AA80014346B612846FFF7A8FC002070BD002085
:103AB800704708B5212202742022427400224282F3
:103AC80082820722C28200F02AFE08BD08B5A12220
:103AD8000274212242740022428282820722C28218
:103AE80000F01DFE08BD38B50446D0F87833D96912
:103AF8004031FFF7EBFF054620B9D4F8C83302215F
:103B080020469847284638BD38B50546D0F878335A
:103B1800DC69217879B9217BB1B9617BF1B9D5F834
:103B28007833D86928B100F0A1FFD5F8783300229E
:103B3800DA61002038BD00F045FF2178284600F002
:103B480057FF00232370E6E7284600F03BFF217B60
:103B5800284600F04DFF00232373DEE7284600F0D7
:103B680031FF617B284600F043FF00236373D6E7EB
:103B780070B584B0044601230222114600F0A1FA70
:103B8800FF2800F0A18006460146204600F08FFA83
:103B9800D4F87853502000F061FFE861D4F8783306
:103BA800DD691A2303FB064393F84A3313F0800FA9
:103BB80072D16978204600F00AFF0146287094F80F
:103BC8001C336A78688902900320019094F81D03D9
:103BD8000090204600F0E6FE002229782046FDF7F6
:103BE8004FF900231A460A21204600F06AFAFF28F6
:103BF8006CD01A2303FB004393F84A3313F0800F69
:103C080052D1AB731A2303FB0043B3F84C332B8315
:103C18001A2303FB004393F8523313F0800F4BD160
:103C2800AB731A2303FB0040B0F854332B83A97BF2
:103C3800204600F0CCFE6873E97B204600F0C7FE02
:103C4800287394F81C33AA7B697B288B0290022680
:103C5800019694F81D030090204600F0A3FE94F806
:103C68001C33EA7B297B688B0290019694F81D032C
:103C78000090204600F096FE002685F84C603246FB
:103C8800697B2046FDF7FCF83246297B2046FDF784
:103C9800F7F8304604B070BD6B701A2303FB064674
:103CA800B6F84C336B8184E7EB731A2303FB0043AC
:103CB800B3F84C336B83ABE7EB731A2303FB004079
:103CC800B0F854336B83B2E70220E3E70220E1E760
:103CD800704730B583B00546D0F87833DC6994F87E
:103CE8004D30012B03D0022B19D003B030BD606AD0
:103CF800228B90420AD9637BE16901200090284613
:103D080000F018FE022384F84D30EEE7637BE1698A
:103D18000122009282B2284600F00CFEF2E7617B95
:103D2800FDF79AF8012805D00228DED1012384F88E
:103D38004D30DAE7636A228B93420AD99B1A636291
:103D4800E3691A44E261636A33B1012384F84D30B0
:103D5800CBE700236362F6E7002384F84D3028465A
:103D6800FFF7B6FFC1E7704738B50546D0F8783396
:103D7800DC6994F84E30032B02D0042B09D038BDEF
:103D8800237B628B216A00F0EBFD042384F84E301C
:103D9800F5E7217BFDF760F80128F0D1217B284663
:103DA800FDF754F8A36A834202D0628B824206D39D
:103DB800002384F84E302846FFF7D5FFDFE71B1AAB
:103DC800A362236A18442062032384F84E30D6E79E
:103DD800704738B50546D0F87833DC6994F84C302C
:103DE800042B04D8DFE803F04C05163C43000123FC
:103DF80047E0A16CFFF75DFE034630B1012840D0D3
:103E0800042384F84C3001233BE0022384F84C302F
:103E1800012336E004F14001FFF758FE0346C0B91C
:103E2800002384F84C30636C23F07F42A16C4B680C
:103E380023F07F439A4201D0012322E0226C0B68D1
:103E48009A4201D001231CE02846FFF7C1FF012355
:103E580017E0012815D0042384F84C30012310E022
:103E6800FFF737FF2846FFF77FFF012309E000210E
:103E780000F017FD38B9002384F84C30012300E026
:103E88000023184638BD0123FBE7002305E003F1B2
:103E9800E002002140F8221001330E2BF7D900234D
:103EA80004E0C218002182F81C110133B3F5007F29
:103EB800F7D300230370437001228270C0F8BC332B
:103EC800027640218171437680F81C3380F81D23E7
:103ED8001846704708B50378DBB20B2B00D008BD35
:103EE800D0F87833002BFAD09B699847F7E770B57C
:103EF80084B004464378072B00F2A480DFE803F07F
:103F0800042C355E67708192082100F04DFC18B1D1
:103F18000125284604B070BD94F82923A271012513
:103F2800657094F81C33217902920026019694F862
:103F38001D2300928022204600F034FD94F81C33A3
:103F48006179A2790292019694F81D230092324673
:103F5800204600F027FDDCE7122100F025FC0028B0
:103F680072D1022363700125D3E7012100F066FCBA
:103F780008B10125CDE70220FCF79BFF012584F855
:103F88001C53032363702179A379029300260196B9
:103F980094F81D3300932B468022204600F002FD42
:103FA80094F81C336179A2790292019694F81D2342
:103FB80000923246204600F0F5FCAAE7092100F0FD
:103FC8000CFC002842D1042363700125A1E7B0F856
:103FD800361300F002FCD8BB05236370012598E76F
:103FE80090F8301319B906234370012591E7FF2390
:103FF80000F58E7200F00AFC60BB06236370012591
:1040080087E790F8311319B907234370012580E732
:10401800FF2300F58E7200F0F9FBE8B907236370FF
:10402800012576E790F8321309B9002571E7FF23D7
:1040380000F58E7200F0EAFB054600283FF469AFF0
:10404800012566E7012564E7012562E7012560E7A8
:1040580001255EE701255CE701255AE798B138B5E7
:1040680004460D4680F8C0230023C0F87833C0F812
:104078007C33FFF70AFF0DB1C4F8C8532046FCF79C
:10408800ADFE002038BD022070470A4659B1D0F86D
:104098007C3353B9591CC0F87C13DC3300EB830024
:1040A800426000207047022070470220704790F855
:1040B80038338B4203D980F8201300207047022040
:1040C800704770B4064600200AE01A2404FB056510
:1040D80095F845439C421AD0FF2B18D0441CE0B2F7
:1040E800012813D805461A2404FB006494F84343B6
:1040F8008C4201D0FF29F1D11A2404FB056494F8FD
:1041080044439442E1D0FF2AE8D1DEE7FF2070BCA7
:10411800704710B50446FCF7D9FE01212046FCF78C
:10412800A1FE002010BDC0F8BC13704708B5D0F838
:10413800BC330133C0F8BC33FFF7CCFE08BD012304
:1041480080F81F337047002380F81F33704790F8BA
:104158001F03704730B587B0044602238DF8173027
:10416800FFF7F5FF38B923782BB12378DBB2032B9F
:1041780001D0032323702378DBB20B2B4AD8DFE866
:1041880003F006131AD0494CB55E687283C794F8D9
:104198001E33002B3ED001232370C820FCF789FE74
:1041A8002046FCF7A3FE35E094F81F33012B31D1EC
:1041B800022323702EE06420FCF77BFE2046FCF7E8
:1041C80037FE84F81D03052323700021204600F0E4
:1041D800FEFB60718021204600F0F9FB014620714A
:1041E80094F81C33A27902920025019594F81D23B6
:1041F80000928022204600F0D5FB94F81C336179A8
:10420800A2790292019594F81D2300922A4620462D
:1042180000F0C8FB002007B030BD2046FFF767FE5E
:104228000028F7D1002384F8203394F83333012B86
:1042380002D007232370EDE708232370EAE7D4F8B8
:10424800C833002BE6D00121204698470823237065
:10425800E0E794F83913204600F001FB0028D9D193
:1042680009232370D6E794F83B3313F0200F02D1CB
:104278000A232370CEE70121204600F001FB002825
:10428800C8D10A232370C5E7D4F87C33002BC1D0EA
:104298000023C4F8783373B1D4F878331BB39B6820
:1042A80020469847E0B906232370D4F8C833032181
:1042B80020469847AEE703F1DC0204EB820252681D
:1042C800117994F84323914202D00133DBB2E2E73B
:1042D80003F1DC0204EB82025268C4F87823F4E7A5
:1042E8000D23237096E70D23237093E7D4F87833D2
:1042F8005BB11B69204698478DF817009DF8173069
:10430800002B87D10B23237084E70D23237081E7CB
:10431800D4F87833002B3FF47DAF5B69204698478B
:1043280078E72046FFF7B1FDD4F87833002B3FF447
:1043380071AFDB68204698470023C4F8783369E7F3
:1043480008B503784BB9012380F81E33D0F8C83379
:104358000BB104219847002008BD90F81F33012BAA
:10436800F9D102230370F6E710B50446FCF7B6FD51
:104378002179204600F03CFB6179204600F038FBAB
:10438800002384F81E33D4F8C83313B1052120461E
:1043980098472046FCF79AFD03232370002010BDA0
:1043A80010B40B7803704B7843708B78CC7843EA61
:1043B800042343800B7903714B7943718B798371A3
:1043C800CB79C371082A16D90B7A4A7A43EA0223B1
:1043D80003818B7ACA7A43EA022343810B7B4A7BA7
:1043E80043EA022383818B7B8373CB7BC3730B7C70
:1043F80003744B7C43745DF8044B70470B7803706F
:104408004B7843708B788370CB78C3700B790371CA
:104418004B7943718B798371CB79C3710B7A0372B2
:1044280070470B7803704B7843708B788370CB7828
:10443800C3700B794A7943EA022383808B798371AD
:1044480070474378032B00D070470378023B9A42A9
:1044580028BF1A4692B2002393420DD210B4C41852
:10446800A47801F8014B02339BB29342F7D300239F
:104478000B705DF8044B704700230B70704730B524
:1044880083B00446037E013B0A2B00F2DA80DFE8A2
:1044980003F0061037435664808C9FADC400427900
:1044A80000F1100100F00FFA02232376012003B077
:1044B80030BD4179FCF7D0FC012805D004281BD079
:1044C800022819D00120F2E7237CE28A4AB113F0CE
:1044D800800F03D1052323760120E8E70323237601
:1044E800E5E713F0800F03D1072323760120DEE7E9
:1044F800092323760120DAE70B2323760120D6E768
:10450800D0F8BC33C38103798289816800F002FA4C
:10451800042323760120CAE70179FCF79DFC0128D2
:1045280006D0052800F08F80042804D00120BEE7BB
:1045380009232376F5E70B2323760120B7E7437990
:10454800828901250095816800F0CEF9D4F8BC3342
:10455800E381062323762846A9E74179FCF77CFC0A
:10456800012807D0052808D002280AD004280CD032
:1045780001209CE70723237699E70C232376032061
:1045880095E705232376012091E70B232376022064
:104598008DE703790022114600F0BCF9D4F8BC334A
:1045A800E38108232376012081E70179FCF754FC95
:1045B800012805D0042807D0052846D0012076E731
:1045C8000D232376002072E70B23237601206EE764
:1045D8004379012500950022114600F085F9D4F8A9
:1045E800BC33E3810A232376284660E74179FCF748
:1045F80033FC012805D0022807D0042809D001205F
:1046080055E70D232376002051E70923237601205F
:104618004DE70B232376012049E7437E0133DBB2C4
:104628004376022B07D9D0F8C833062198470023D0
:10463800637602203BE7FCF751FC01202076A0704E
:1046480035E7012033E7032031E703202FE703781C
:104658000A8813440B800378184470472DE9F04109
:1046680082B00C460B7803704B7843708B78C9780E
:1046780043EA012343802379037163794371A37962
:104688008371E379C371237A0372092A44D90546F1
:104698000923ADF806300026012E3DD86A88BDF8FA
:1046A80006309A4238D90DF106012046FFF7CFFFB0
:1046B80004464378042BEFD1B0461A2000FB06F0DD
:1046C8000830284421460230FFF798FE00271A23B5
:1046D80003FB08539B7BBB421BD96A88BDF8063095
:1046E8009A4216D90DF106012046FFF7B0FF04469D
:1046F8004378052BEBD101371A2000FB08F000EBBB
:10470800C7000830284421460430FFF78AFEFFB26C
:10471800DDE70136F6B2BFE702B0BDE8F081837885
:10472800012B03D0022B09D0012305E0816082818F
:1047380001230376022282701846704710B504469A
:10474800FFF79DFE034630B103280AD0022806D1A0
:104758000122A27003E00122A270002222761846EC
:1047680010BD0122A27000222276F8E738B5BDF804
:1047780010508478012C04D02A461946FFF7CFFF41
:1047880038BD61F07F04047406214174428202F44A
:104798007F44B4F5407F03D000228282C582EBE7D4
:1047A80040F209428282F9E7F0B583B0044600F589
:1047B8008E750E4600912B464FF480720021FFF74C
:1047C800D5FF074610B1384603B0F0BD324629463A
:1047D80004F22230FFF7E4FDF5E7F0B583B00446B4
:1047E8000E4600F11C0500912B464FF40072002183
:1047F800FFF7BCFF074610B1384603B0F0BD32469C
:10480800294604F54D70FFF729FFF5E7F0B583B0A9
:1048180017461D4600F58E740093234641F44072F6
:104828000021FFF7A3FF064610B1304603B0F0BDE4
:104838002A4639462046FFF704FEF6E708B583788E
:10484800012B04D000221146FFF769FF08BD0023A1
:1048580003740522427441828382C382F2E708B559
:104868008378012B04D000221146FFF758FF08BDBA
:10487800002303740922427441828382C382F2E7CF
:1048880008B58378012B04D000221146FFF747FFB3
:1048980008BD002303740322427441828382C382C9
:1048A800F2E708B58378012B04D000221146FFF700
:1048B80036FF08BD02230374012343740023438297
:1048C8008182C382F1E730B585B015460024039490
:1048D8000823029301910094234622462946FCF7B7
:1048E80028FB204605B030BD30B585B00C461946CA
:1048F8009DF8203090F81D5305B1002303930292D0
:1049080001940123009300231A46FCF712FB0020B0
:1049180005B030BD30B585B01D4600240394029221
:1049280001910122009223462946FCF702FB20460A
:1049380005B030BD30B585B00C4619469DF820301D
:1049480090F81D5305B100230393029201940123AB
:10495800009302230022FCF7ECFA002005B030BDDA
:1049680030B585B01D4600240394029201910122BE
:10497800009202232946FCF7DCFA204605B030BD38
:1049880000230A2B0BD803F1E00250F8222012F47E
:10499800004F02D00133DBB2F3E798B270474FF60D
:1049A800FF70704710B584B0BDF8204002949DF8A0
:1049B8001C4001949DF818400094FCF79FFA0020D1
:1049C80004B010BD08B5FCF7ACFA002008BD38B536
:1049D80005460C46FFF7D4FF4FF6FF73984205D003
:1049E80044F4004400F1E00345F82340C0B238BD68
:1049F8000A2906D8E03150F82130C3F30E0340F8F5
:104A08002130002070470000014B1868704700BF34
:104A1800F807002070B50D4E0D4CA41BA4100025FE
:104A2800A54209D10B4E0C4C00F0EAF8A41BA410C7
:104A38000025A54205D170BD56F8253098470135A7
:104A4800EEE756F8253098470135F2E7444C000860
:104A5800444C0008444C0008484C0008024B0146EE
:104A6800186800F061B800BFF8070020024B014643
:104A7800186800F00BB800BFF8070020024403468E
:104A8800934200D1704703F8011BF9E738B5054692
:104A9800002945D051F8043C0C1F002BB8BFE4187E
:104AA80000F0ACF81F4A1368104633B9636014600D
:104AB8002846BDE8384000F0A2B8A3420CD92168C6
:104AC8006218934204BF1A685B68636004BF521897
:104AD80022600460ECE713465A680AB1A242FAD988
:104AE80019685818A0420BD120680144581882420E
:104AF8001960DDD1106852685A6001441960D7E71F
:104B080002D90C232B60D3E7206821188A4204BFFE
:104B180011685268626004BF091821605C60C7E7C9
:104B280038BD00BF8C08002070B5CD1C25F00305EA
:104B380008350C2D38BF0C25002D064601DBA9428F
:104B480003D90C233360002070BD00F057F8214AC8
:104B58001468214691B9204C23681BB9304600F0EF
:104B68003DF820602946304600F038F8431C24D12F
:104B78000C233360304600F042F8E4E70B685B1B17
:104B880018D40B2B0FD90B60CD50CC18304600F041
:104B980036F804F10B00231D20F00700C31AD3D008
:104BA8005A42E250D0E78C424B6816BF63601360EC
:104BB8000C46EBE70C464968CCE7C41C24F0030418
:104BC800A04205D0211A304600F008F80130CFD0B5
:104BD8002560DBE78C0800209008002038B5064CDB
:104BE8000023054608462360FBF794FC431C02D1CA
:104BF800236803B12B6038BD9010002070477047C0
:104C0800F8B500BFF8BC08BC9E467047F8B500BFB1
:084C1800F8BC08BC9E46704781
:104C2000000000000000000001020304060708095C
:0C4C3000000000000102030443444300A4
:084C3C00BCB5FF7F0100000080
:044C4400AD010008B6
:044C480089010008D6
:104C4C00E6FF402286AA9F73DC345F1D0D05E2AEA1
:104C5C005CE75E672FD245AAB72DF971C0E2898F48
:104C6C0018C050B14C5B1EB35332563A14E764581B
:104C7C004124033CC52A9C8C06A7A21F23F764E69B
:104C8C001B50973A8A86164AF5775B285DA6E0CFCB
:104C9C00C14A2862FB85098007CE1159D489CFC13E
:104CAC00421D05EAA2472E0FA1100CB4E13F9570EE
:104CBC006D4DC0CE8B49466EFD77847E620A5DAA2F
:104CCC00C75DA7648DC6170D446ADC56AEA235D0FD
:104CDC00D9DBA768C1A5CBDBDADFE965B95549F0AB
:104CEC008FE86E4BCAFCE414917AAF597454116975
:104CFC00F1CE80C0D19940813620486992B144DC14
:104D0C00974F0E95C32723CF7ACDE8331B129FDE26
:104D1C002F60040543806B0CA17226364651BD6C86
:104D2C00A24B934B3E9B5A60D823A5376B0437118B
:104D3C00A832EC1B0B066E59E8F76C2603B7F2ECA5
:104D4C00979DC97465F39058A7367B6FE83105FEC3
:104D5C00049AA473A7CF27788FDCD3C6145576A1F9
:104D6C0024CCB038537F7BF823D709D7EEB8191D64
:104D7C000A9A70DDD85E706FD4E92C2344E03EA70C
:104D8C007D31F479D040FE8E8F01BC4E7FBD16DE96
:104D9C009BD5CBF518B02A003126894B621495218E
:104DAC00452A6A99388EF3AD25FDD01D4A91F6B788
:104DBC0071015ACDC19950AD775595FD880EDEEB3A
:104DCC00B654E18DFD6D023D001575438817041531
:104DDC003995AA254067919B7E1D6BF2AA738FF3C0
:104DEC008F750C551A418CABAB79F8C891C270E039
:104DFC00CA2A8BDE971CCCC7A58F559F080DE88956
:104E0C0090F9E2A187B625A05A71C5286E17EFB2AA
:104E1C00588CC6E2CF2693296359BC718EE0916100
:104E2C0006B0650751452EA3A77C756B573670B23B
:104E3C00BCE4086BE28C44063911E0D79C134B0997
:104E4C00DC169ADA2064D58AE54B58696C9605070E
:104E5C0003D22DCEBB4C88E26405A44841EB15D897
:104E6C0042AAD5835279CFA53B5456A2E2CBF3F29A
:104E7C00CBF217026BFF32274DBBE7657D8836AD51
:104E8C0066648B1A65EEA20CC3DECE7ED74DE2D7DC
:104E9C005CC1D6C3E291315DAF9C93B84A832207C3
:104EAC006217E873068FFF9E24D9F711DB0FBD5CE8
:104EBC00DA937F96D198F82B8C77FCC3C4975D74EA
:104ECC003AA442F597E9817371F381944796916006
:104EDC006E8F0DF2A4621E58CF037C315BA8241B8D
:104EEC00C9313007DDAA3186559342EC17CADC2054
:104EFC002A602D4ECEAEA46648097AA54D4DDDC272
:104F0C00B3851A6F0C27A85DF82EDEA3DEF4E8AA91
:104F1C0064A7699AF878BA738AFDEE06725DF2E4BA
:104F2C0090F7A046E50644E3C1EE9223C27CD1D2B1
:104F3C0031BAEB2F164DE2F0CF9838BC1168D7C2BE
:104F4C00EB91E63460D14895543049B3308A5AB26B
:104F5C00EC1441E9F48446EA315ABC29B9A1C52CB8
:104F6C000716FD905F9541DCF2C36E57F0EA0FDC3B
:104F7C00F0585C83598AFFE2C9335AFCDE4F4289F0
:104F8C00BE66FE2793942AFBCAD578794A6471B021
:104F9C00B2DA842CD616F379FC318913B8392B3755
:104FAC005CD31EB6FA4A79629C86B62200CCC60542
:104FBC008C8698D56111C267068A1434E9D30AAE7F
:104FCC004550522343D56D1F457C91E52B2D2CEF7D
:104FDC00BF703A0A8C50C1F4210C1E34C5E3AD7C71
:104FEC009487499658918CF926A6B6720EAD3675F3
:104FFC00380E8440A160C2EBD0A8BD138D3C148741
:10500C004996484D9F214CC2F6CE6CD95A2F55402B
:10501C0047D48C7D9BBFFFBE88067E7296D3660CF0
:10502C009C2962AFB1D83284190844ACDC800347A8
:10503C00188EB52DDE6A2ACD41828C1978C808A845
:10504C0042011F9B73AB714299977544F37C4247A5
:10505C00895BB1B134E173F26068C6253B12DB9E0B
:10506C001F9088B69B49A0A69E0EB70C42B4624A0C
:10507C000F5C59C283D953EA4E5EF08C9DB1E11C92
:10508C00A67F0776398C4FC0108FAFF153E8400ED6
:10509C008C969D957A5B0780B1ACE96FD1B2C7361F
:1050AC009607F0CC089E8D94999D8BB68E269B7B93
:1050BC00D8E38E794329C20A84894BA51B9E877934
:1050CC0090CE0E81B5D01183B8F71FC414CA11B29B
:1050DC00EA12DDB3E0F557ED172E440F8EBEA6AFE6
:1050EC00DFE9CB3B7012E25567675E13762D7107D3
:1050FC009E7CEDC9E57F04E4581F6E7357E0714345
:10510C00D9F44408808EADBD114CFA4340B24095A1
:10511C00D88D19854D8914FB295835ED838B613554
:10512C003CD618AAE0AD73112461697B1456F9952D
:10513C0048FC02E9F7F128154CA073C5297DAB4C4E
:10514C0067D9C5D086EC38B9A821F45378783CC619
:10515C00FB12E5B394377E1953C1750357AB592A2B
:10516C00CC9A6034088F1E36EC89B827DC8D3D2D27
:10517C00BD3F5E54125F6A2CFC179A92C0387F7C3C
:10518C006737478E0E1D952C100D73CD9D562C68D0
:10519C005B052FF5075D7829F6BB22B8588C8589FD
:1051AC00E2891CD1830F8D2E4FE8FF6C3F994DA7E0
:1051BC00CA15A959EA3325FF80AF886E930DAB61F0
:1051CC000018119A67DA4283F8F78D193CE43664BB
:1051DC0069F007557F1F23BF0355B05C08844BC192
:1051EC000AB953759A090B3755639CA57F62AB348A
:1051FC001EB42448835793FF1F08035CE6B66F9BCD
:10520C0098976997DB67C9D78466C9B69F40074BE7
:10521C0093956D9F65E6CFBA9D70A70B2F954CDDCE
:10522C001ECCFC9C358970A566CC1B73D8F68855B2
:10523C00B78F7A90C0BA352FAC034C7C7449A7C594
:10524C00B50B260966BBF01E1996BCC13C2F0E3659
:10525C00312B043E6A4F397FEB057453DF67ACB6D4
:10526C005CE1E5C75F2534D2E3836233E6108DA49D
:10527C00591D36C8E9BFF80E0DB55AEF7710106EF0
:10528C00B1E70CC77D371D1767A72EBE562738030D
:10529C00BB3A0B111682B72264B142070560B6FE09
:1052AC00A04C2768A6C246330507DC2669D7DA87E7
:1052BC006A7091F9906535AB2CF7E220B3DB6CA2E8
:1052CC00B6D78F77ED55826A25D2A4A3470D6B4EC6
:1052DC001977B2046A70471973824551C2C1A15D36
:1052EC00A7D5987ED1014464B2EB940C8E68AFC7FD
:1052FC00613115E621C176437756A2D6CB7A7D7300
:10530C00D2EAD835FB2C5C38E84C899C9D8F6C42DA
:10531C008880986CC93D6A6CBEDDFCD41568F1C6FA
:10532C00F4417F274FF3910F88A73ABA453244E5F1
:10533C00EDD72064BCB661215A0A52885679734164
:10534C00F03A7160580D0BB9581F07B007E202B064
:10535C00E7441B8DF85F26F1F3284038746EFBDAB6
:10536C002BB103035C3455120565FDB6FDE0D5E4A5
:10537C00B9CA7564EFD36FB658FEF2419A6BF1EF70
:10538C007EE529B3F530470A8CA55B1919BE647606
:10539C008B1BF7D62ADC2BCC9A998B8A0584F94A7D
:1053AC007064EFB2BC3205EE68C07D426644DE70BC
:1053BC00325BA3E9A3DFBDD3E0CD73AF4B395C3EC9
:1053CC006457E8BC9F4A178D89A943293AFEE476B5
:1053DC00AA5955DE39FC4A2F4F31785CDED86998D2
:1053EC0006A243A2BCF2A44D046FB3D0AFD5F2A871
:1053FC00C4D892A736E2E9DF6D84A9365F20510D3F
:10540C000088000002030400000000000024F400E7
:10541C000100000010000000384C000802000000E1
:10542C00793B0008113B0008EF3A0008DB3D00080F
:10543C00B73A000800000000FC0700200000000044
:10544C000000000000000000000000000000000050
:10545C000000000000000000000000000000000040
:10546C000000000000000000000000000000000030
:10547C000000000000000000000000000000000020
:10548C000000000000000000000000000000000010
:0C549C0000000000000000000000000004
:04000005080004C922
:00000001FF
